{
  "_format": "hh-sol-artifact-1",
  "contractName": "CertificateRecruitment",
  "sourceName": "contracts/CertificateRecruitment.sol",
  "abi": [
    {
      "inputs": [],
      "stateMutability": "nonpayable",
      "type": "constructor"
    },
    {
      "anonymous": false,
      "inputs": [
        {
          "indexed": false,
          "internalType": "uint256",
          "name": "applicationId",
          "type": "uint256"
        },
        {
          "indexed": false,
          "internalType": "enum CertificateRecruitment.ApplicationStatus",
          "name": "status",
          "type": "uint8"
        }
      ],
      "name": "ApplicationDecision",
      "type": "event"
    },
    {
      "anonymous": false,
      "inputs": [
        {
          "indexed": false,
          "internalType": "uint256",
          "name": "applicationId",
          "type": "uint256"
        },
        {
          "indexed": false,
          "internalType": "uint256",
          "name": "score",
          "type": "uint256"
        },
        {
          "indexed": false,
          "internalType": "string",
          "name": "strength",
          "type": "string"
        },
        {
          "indexed": false,
          "internalType": "string",
          "name": "weakness",
          "type": "string"
        }
      ],
      "name": "CandidateEvaluated",
      "type": "event"
    },
    {
      "anonymous": false,
      "inputs": [
        {
          "indexed": false,
          "internalType": "string",
          "name": "certificateId",
          "type": "string"
        },
        {
          "indexed": false,
          "internalType": "string",
          "name": "recipientName",
          "type": "string"
        },
        {
          "indexed": false,
          "internalType": "string",
          "name": "issuerName",
          "type": "string"
        }
      ],
      "name": "CertificateIssued",
      "type": "event"
    },
    {
      "anonymous": false,
      "inputs": [
        {
          "indexed": false,
          "internalType": "string",
          "name": "certificateId",
          "type": "string"
        }
      ],
      "name": "CertificateRevoked",
      "type": "event"
    },
    {
      "anonymous": false,
      "inputs": [
        {
          "indexed": false,
          "internalType": "uint256",
          "name": "applicationId",
          "type": "uint256"
        },
        {
          "indexed": false,
          "internalType": "address",
          "name": "applicant",
          "type": "address"
        },
        {
          "indexed": false,
          "internalType": "string",
          "name": "jobTitle",
          "type": "string"
        }
      ],
      "name": "JobApplied",
      "type": "event"
    },
    {
      "anonymous": false,
      "inputs": [
        {
          "indexed": false,
          "internalType": "address",
          "name": "wallet",
          "type": "address"
        },
        {
          "indexed": false,
          "internalType": "string",
          "name": "fullName",
          "type": "string"
        }
      ],
      "name": "ProfileRegistered",
      "type": "event"
    },
    {
      "inputs": [],
      "name": "applicationCount",
      "outputs": [
        {
          "internalType": "uint256",
          "name": "",
          "type": "uint256"
        }
      ],
      "stateMutability": "view",
      "type": "function"
    },
    {
      "inputs": [
        {
          "internalType": "string",
          "name": "_jobTitle",
          "type": "string"
        },
        {
          "internalType": "string",
          "name": "_certificateId",
          "type": "string"
        }
      ],
      "name": "applyForJob",
      "outputs": [],
      "stateMutability": "nonpayable",
      "type": "function"
    },
    {
      "inputs": [
        {
          "internalType": "uint256",
          "name": "_applicationId",
          "type": "uint256"
        }
      ],
      "name": "approveApplication",
      "outputs": [],
      "stateMutability": "nonpayable",
      "type": "function"
    },
    {
      "inputs": [
        {
          "internalType": "uint256",
          "name": "_applicationId",
          "type": "uint256"
        }
      ],
      "name": "evaluateCandidate",
      "outputs": [],
      "stateMutability": "nonpayable",
      "type": "function"
    },
    {
      "inputs": [
        {
          "internalType": "uint256",
          "name": "_applicationId",
          "type": "uint256"
        }
      ],
      "name": "getApplication",
      "outputs": [
        {
          "internalType": "uint256",
          "name": "applicationId",
          "type": "uint256"
        },
        {
          "internalType": "address",
          "name": "applicant",
          "type": "address"
        },
        {
          "internalType": "string",
          "name": "jobTitle",
          "type": "string"
        },
        {
          "internalType": "string",
          "name": "certificateId",
          "type": "string"
        },
        {
          "internalType": "uint256",
          "name": "evaluationScore",
          "type": "uint256"
        },
        {
          "internalType": "string",
          "name": "strength",
          "type": "string"
        },
        {
          "internalType": "string",
          "name": "weakness",
          "type": "string"
        },
        {
          "internalType": "enum CertificateRecruitment.ApplicationStatus",
          "name": "status",
          "type": "uint8"
        },
        {
          "internalType": "bool",
          "name": "exists",
          "type": "bool"
        }
      ],
      "stateMutability": "view",
      "type": "function"
    },
    {
      "inputs": [
        {
          "internalType": "string",
          "name": "_certificateId",
          "type": "string"
        }
      ],
      "name": "getCertificate",
      "outputs": [
        {
          "internalType": "string",
          "name": "certificateId",
          "type": "string"
        },
        {
          "internalType": "string",
          "name": "recipientName",
          "type": "string"
        },
        {
          "internalType": "string",
          "name": "issuerName",
          "type": "string"
        },
        {
          "internalType": "string",
          "name": "certificateTitle",
          "type": "string"
        },
        {
          "internalType": "string",
          "name": "issueDate",
          "type": "string"
        },
        {
          "internalType": "string",
          "name": "certificateHash",
          "type": "string"
        },
        {
          "internalType": "bool",
          "name": "isValid",
          "type": "bool"
        },
        {
          "internalType": "bool",
          "name": "exists",
          "type": "bool"
        }
      ],
      "stateMutability": "view",
      "type": "function"
    },
    {
      "inputs": [
        {
          "internalType": "address",
          "name": "_wallet",
          "type": "address"
        }
      ],
      "name": "getProfile",
      "outputs": [
        {
          "internalType": "address",
          "name": "wallet",
          "type": "address"
        },
        {
          "internalType": "string",
          "name": "fullName",
          "type": "string"
        },
        {
          "internalType": "string",
          "name": "email",
          "type": "string"
        },
        {
          "internalType": "string",
          "name": "skills",
          "type": "string"
        },
        {
          "internalType": "uint256",
          "name": "experienceYears",
          "type": "uint256"
        },
        {
          "internalType": "bool",
          "name": "exists",
          "type": "bool"
        }
      ],
      "stateMutability": "view",
      "type": "function"
    },
    {
      "inputs": [
        {
          "internalType": "string",
          "name": "_certificateId",
          "type": "string"
        },
        {
          "internalType": "string",
          "name": "_recipientName",
          "type": "string"
        },
        {
          "internalType": "string",
          "name": "_issuerName",
          "type": "string"
        },
        {
          "internalType": "string",
          "name": "_certificateTitle",
          "type": "string"
        },
        {
          "internalType": "string",
          "name": "_issueDate",
          "type": "string"
        },
        {
          "internalType": "string",
          "name": "_certificateHash",
          "type": "string"
        }
      ],
      "name": "issueCertificate",
      "outputs": [],
      "stateMutability": "nonpayable",
      "type": "function"
    },
    {
      "inputs": [],
      "name": "owner",
      "outputs": [
        {
          "internalType": "address",
          "name": "",
          "type": "address"
        }
      ],
      "stateMutability": "view",
      "type": "function"
    },
    {
      "inputs": [
        {
          "internalType": "string",
          "name": "_fullName",
          "type": "string"
        },
        {
          "internalType": "string",
          "name": "_email",
          "type": "string"
        },
        {
          "internalType": "string",
          "name": "_skills",
          "type": "string"
        },
        {
          "internalType": "uint256",
          "name": "_experienceYears",
          "type": "uint256"
        }
      ],
      "name": "registerProfile",
      "outputs": [],
      "stateMutability": "nonpayable",
      "type": "function"
    },
    {
      "inputs": [
        {
          "internalType": "uint256",
          "name": "_applicationId",
          "type": "uint256"
        }
      ],
      "name": "rejectApplication",
      "outputs": [],
      "stateMutability": "nonpayable",
      "type": "function"
    },
    {
      "inputs": [
        {
          "internalType": "string",
          "name": "_certificateId",
          "type": "string"
        }
      ],
      "name": "revokeCertificate",
      "outputs": [],
      "stateMutability": "nonpayable",
      "type": "function"
    },
    {
      "inputs": [
        {
          "internalType": "string",
          "name": "_certificateId",
          "type": "string"
        }
      ],
      "name": "verifyCertificate",
      "outputs": [
        {
          "internalType": "bool",
          "name": "",
          "type": "bool"
        }
      ],
      "stateMutability": "view",
      "type": "function"
    }
  ],
  "bytecode": "0x608060405234801561001057600080fd5b50336000806101000a81548173ffffffffffffffffffffffffffffffffffffffff021916908373ffffffffffffffffffffffffffffffffffffffff16021790555061311a806100606000396000f3fe608060405234801561001057600080fd5b50600436106100cf5760003560e01c80638b23d8751161008c5780639e5f0a55116100665780639e5f0a551461021b578063c5e83e9714610237578063e2aad4a014610253578063ed0f2e7514610271576100cf565b80638b23d875146101b15780638da5cb5b146101e157806394973c97146101ff576100cf565b80630f53a470146100d4578063142e1542146101095780631f2f4bfd146101255780632068a0e91461015d578063213fbf1b14610179578063382912f714610195575b600080fd5b6100ee60048036038101906100e99190611fb9565b6102a8565b604051610100969594939291906120b9565b60405180910390f35b610123600480360381019061011e9190612264565b610565565b005b61013f600480360381019061013a91906122d9565b610743565b6040516101549998979695949392919061237d565b60405180910390f35b61017760048036038101906101729190612426565b610aca565b005b610193600480360381019061018e91906122d9565b610c44565b005b6101af60048036038101906101aa91906124e1565b610db1565b005b6101cb60048036038101906101c69190612264565b61108a565b6040516101d89190612559565b60405180910390f35b6101e96110f9565b6040516101f69190612574565b60405180910390f35b6102196004803603810190610214919061258f565b61111d565b005b610235600480360381019061023091906122d9565b611382565b005b610251600480360381019061024c91906122d9565b6119b4565b005b61025b611b21565b60405161026891906126c4565b60405180910390f35b61028b60048036038101906102869190612264565b611b27565b60405161029f9897969594939291906126df565b60405180910390f35b600060608060606000806000600260008973ffffffffffffffffffffffffffffffffffffffff1673ffffffffffffffffffffffffffffffffffffffff1681526020019081526020016000206040518060c00160405290816000820160009054906101000a900473ffffffffffffffffffffffffffffffffffffffff1673ffffffffffffffffffffffffffffffffffffffff1673ffffffffffffffffffffffffffffffffffffffff168152602001600182018054610364906127b6565b80601f0160208091040260200160405190810160405280929190818152602001828054610390906127b6565b80156103dd5780601f106103b2576101008083540402835291602001916103dd565b820191906000526020600020905b8154815290600101906020018083116103c057829003601f168201915b505050505081526020016002820180546103f6906127b6565b80601f0160208091040260200160405190810160405280929190818152602001828054610422906127b6565b801561046f5780601f106104445761010080835404028352916020019161046f565b820191906000526020600020905b81548152906001019060200180831161045257829003601f168201915b50505050508152602001600382018054610488906127b6565b80601f01602080910402602001604051908101604052809291908181526020018280546104b4906127b6565b80156105015780601f106104d657610100808354040283529160200191610501565b820191906000526020600020905b8154815290600101906020018083116104e457829003601f168201915b50505050508152602001600482015481526020016005820160009054906101000a900460ff1615151515815250509050806000015181602001518260400151836060015184608001518560a001519650965096509650965096505091939550919395565b60008054906101000a900473ffffffffffffffffffffffffffffffffffffffff1673ffffffffffffffffffffffffffffffffffffffff163373ffffffffffffffffffffffffffffffffffffffff16146105f3576040517f08c379a00000000000000000000000000000000000000000000000000000000081526004016105ea90612859565b60405180910390fd5b60018160405161060391906128b5565b908152602001604051809103902060060160019054906101000a900460ff16610661576040517f08c379a000000000000000000000000000000000000000000000000000000000815260040161065890612918565b60405180910390fd5b60018160405161067191906128b5565b908152602001604051809103902060060160009054906101000a900460ff166106cf576040517f08c379a00000000000000000000000000000000000000000000000000000000081526004016106c690612984565b60405180910390fd5b60006001826040516106e191906128b5565b908152602001604051809103902060060160006101000a81548160ff0219169083151502179055507f266095b5af7e2323760fef151f1d78896740cd2cc1b73a6357ff9e4c3fdae7408160405161073891906129a4565b60405180910390a150565b60008060608060006060806000806000600360008c815260200190815260200160002060405180610120016040529081600082015481526020016001820160009054906101000a900473ffffffffffffffffffffffffffffffffffffffff1673ffffffffffffffffffffffffffffffffffffffff1673ffffffffffffffffffffffffffffffffffffffff1681526020016002820180546107e2906127b6565b80601f016020809104026020016040519081016040528092919081815260200182805461080e906127b6565b801561085b5780601f106108305761010080835404028352916020019161085b565b820191906000526020600020905b81548152906001019060200180831161083e57829003601f168201915b50505050508152602001600382018054610874906127b6565b80601f01602080910402602001604051908101604052809291908181526020018280546108a0906127b6565b80156108ed5780601f106108c2576101008083540402835291602001916108ed565b820191906000526020600020905b8154815290600101906020018083116108d057829003601f168201915b5050505050815260200160048201548152602001600582018054610910906127b6565b80601f016020809104026020016040519081016040528092919081815260200182805461093c906127b6565b80156109895780601f1061095e57610100808354040283529160200191610989565b820191906000526020600020905b81548152906001019060200180831161096c57829003601f168201915b505050505081526020016006820180546109a2906127b6565b80601f01602080910402602001604051908101604052809291908181526020018280546109ce906127b6565b8015610a1b5780601f106109f057610100808354040283529160200191610a1b565b820191906000526020600020905b8154815290600101906020018083116109fe57829003601f168201915b505050505081526020016007820160009054906101000a900460ff166002811115610a4957610a48612306565b5b6002811115610a5b57610a5a612306565b5b81526020016007820160019054906101000a900460ff1615151515815250509050806000015181602001518260400151836060015184608001518560a001518660c001518760e00151886101000151995099509950995099509950995099509950509193959799909294969850565b6040518060c001604052803373ffffffffffffffffffffffffffffffffffffffff16815260200185815260200184815260200183815260200182815260200160011515815250600260003373ffffffffffffffffffffffffffffffffffffffff1673ffffffffffffffffffffffffffffffffffffffff16815260200190815260200160002060008201518160000160006101000a81548173ffffffffffffffffffffffffffffffffffffffff021916908373ffffffffffffffffffffffffffffffffffffffff1602179055506020820151816001019081610bab9190612b72565b506040820151816002019081610bc19190612b72565b506060820151816003019081610bd79190612b72565b506080820151816004015560a08201518160050160006101000a81548160ff0219169083151502179055509050507fe16a05fc8f54df0cc4862ec9ed0851c325c6679d0b6fe97b6441d61231b5a49e3385604051610c36929190612c44565b60405180910390a150505050565b60008054906101000a900473ffffffffffffffffffffffffffffffffffffffff1673ffffffffffffffffffffffffffffffffffffffff163373ffffffffffffffffffffffffffffffffffffffff1614610cd2576040517f08c379a0000000000000000000000000000000000000000000000000000000008152600401610cc990612859565b60405180910390fd5b6003600082815260200190815260200160002060070160019054906101000a900460ff16610d35576040517f08c379a0000000000000000000000000000000000000000000000000000000008152600401610d2c90612cc0565b60405180910390fd5b60016003600083815260200190815260200160002060070160006101000a81548160ff02191690836002811115610d6f57610d6e612306565b5b02179055507f2db1964bccb906dc3d1fefda85acbfc2bdb2950b2f61f3564bacdd0b49e6de00816001604051610da6929190612ce0565b60405180910390a150565b600260003373ffffffffffffffffffffffffffffffffffffffff1673ffffffffffffffffffffffffffffffffffffffff16815260200190815260200160002060050160009054906101000a900460ff16610e40576040517f08c379a0000000000000000000000000000000000000000000000000000000008152600401610e3790612d55565b60405180910390fd5b610e498161108a565b610e88576040517f08c379a0000000000000000000000000000000000000000000000000000000008152600401610e7f90612dc1565b60405180910390fd5b60046000815480929190610e9b90612e10565b919050555060405180610120016040528060045481526020013373ffffffffffffffffffffffffffffffffffffffff1681526020018381526020018281526020016000815260200160405180602001604052806000815250815260200160405180602001604052806000815250815260200160006002811115610f2157610f20612306565b5b8152602001600115158152506003600060045481526020019081526020016000206000820151816000015560208201518160010160006101000a81548173ffffffffffffffffffffffffffffffffffffffff021916908373ffffffffffffffffffffffffffffffffffffffff1602179055506040820151816002019081610fa89190612b72565b506060820151816003019081610fbe9190612b72565b506080820151816004015560a0820151816005019081610fde9190612b72565b5060c0820151816006019081610ff49190612b72565b5060e08201518160070160006101000a81548160ff021916908360028111156110205761101f612306565b5b02179055506101008201518160070160016101000a81548160ff0219169083151502179055509050507fdade408e5cd612a74423eb497e77aa7bf6749f2d6e0906d1cba11c6d1bad1964600454338460405161107e93929190612e58565b60405180910390a15050565b600060018260405161109c91906128b5565b908152602001604051809103902060060160019054906101000a900460ff1680156110f257506001826040516110d291906128b5565b908152602001604051809103902060060160009054906101000a900460ff165b9050919050565b60008054906101000a900473ffffffffffffffffffffffffffffffffffffffff1681565b60008054906101000a900473ffffffffffffffffffffffffffffffffffffffff1673ffffffffffffffffffffffffffffffffffffffff163373ffffffffffffffffffffffffffffffffffffffff16146111ab576040517f08c379a00000000000000000000000000000000000000000000000000000000081526004016111a290612859565b60405180910390fd5b6001866040516111bb91906128b5565b908152602001604051809103902060060160019054906101000a900460ff161561121a576040517f08c379a000000000000000000000000000000000000000000000000000000000815260040161121190612ee2565b60405180910390fd5b6040518061010001604052808781526020018681526020018581526020018481526020018381526020018281526020016001151581526020016001151581525060018760405161126a91906128b5565b9081526020016040518091039020600082015181600001908161128d9190612b72565b5060208201518160010190816112a39190612b72565b5060408201518160020190816112b99190612b72565b5060608201518160030190816112cf9190612b72565b5060808201518160040190816112e59190612b72565b5060a08201518160050190816112fb9190612b72565b5060c08201518160060160006101000a81548160ff02191690831515021790555060e08201518160060160016101000a81548160ff0219169083151502179055509050507fc9aed1c64acf67836d70d23befa83b398ae1cc3d4dfae56bfe219d38128dd24386868660405161137293929190612f02565b60405180910390a1505050505050565b60008054906101000a900473ffffffffffffffffffffffffffffffffffffffff1673ffffffffffffffffffffffffffffffffffffffff163373ffffffffffffffffffffffffffffffffffffffff1614611410576040517f08c379a000000000000000000000000000000000000000000000000000000000815260040161140790612859565b60405180910390fd5b6003600082815260200190815260200160002060070160019054906101000a900460ff16611473576040517f08c379a000000000000000000000000000000000000000000000000000000000815260040161146a90612cc0565b60405180910390fd5b60006003600083815260200190815260200160002090506000600260008360010160009054906101000a900473ffffffffffffffffffffffffffffffffffffffff1673ffffffffffffffffffffffffffffffffffffffff1673ffffffffffffffffffffffffffffffffffffffff1681526020019081526020016000206040518060c00160405290816000820160009054906101000a900473ffffffffffffffffffffffffffffffffffffffff1673ffffffffffffffffffffffffffffffffffffffff1673ffffffffffffffffffffffffffffffffffffffff168152602001600182018054611560906127b6565b80601f016020809104026020016040519081016040528092919081815260200182805461158c906127b6565b80156115d95780601f106115ae576101008083540402835291602001916115d9565b820191906000526020600020905b8154815290600101906020018083116115bc57829003601f168201915b505050505081526020016002820180546115f2906127b6565b80601f016020809104026020016040519081016040528092919081815260200182805461161e906127b6565b801561166b5780601f106116405761010080835404028352916020019161166b565b820191906000526020600020905b81548152906001019060200180831161164e57829003601f168201915b50505050508152602001600382018054611684906127b6565b80601f01602080910402602001604051908101604052809291908181526020018280546116b0906127b6565b80156116fd5780601f106116d2576101008083540402835291602001916116fd565b820191906000526020600020905b8154815290600101906020018083116116e057829003601f168201915b50505050508152602001600482015481526020016005820160009054906101000a900460ff161515151581525050905060008060405180602001604052806000815250905060006040518060200160405280600081525090506117eb856003018054611768906127b6565b80601f0160208091040260200160405190810160405280929190818152602001828054611794906127b6565b80156117e15780601f106117b6576101008083540402835291602001916117e1565b820191906000526020600020905b8154815290600101906020018083116117c457829003601f168201915b505050505061108a565b15611800576032836117fd9190612f4e565b92505b600284608001511061182057601e836118199190612f4e565b9250611830565b600a8361182d9190612f4e565b92505b600084606001519050600a8151106118565760148461184f9190612f4e565b9350611866565b6005846118639190612f4e565b93505b605084106118a9576040518060800160405280604281526020016130146042913992506040518060600160405280603e8152602001612fd6603e91399150611941565b603c84106118ec576040518060600160405280603081526020016130846030913992506040518060600160405280603181526020016130b4603191399150611940565b6040518060400160405280601b81526020017f4261736963207175616c696669636174696f6e206578697374732e000000000081525092506040518060600160405280602e8152602001613056602e913991505b5b8386600401819055508286600501908161195b9190612b72565b508186600601908161196d9190612b72565b507f4068b1d7336834bd6e7c710fe323c04b8cc1bb6a9f9b2d2c1cfecbf64c1613e2878585856040516119a39493929190612f82565b60405180910390a150505050505050565b60008054906101000a900473ffffffffffffffffffffffffffffffffffffffff1673ffffffffffffffffffffffffffffffffffffffff163373ffffffffffffffffffffffffffffffffffffffff1614611a42576040517f08c379a0000000000000000000000000000000000000000000000000000000008152600401611a3990612859565b60405180910390fd5b6003600082815260200190815260200160002060070160019054906101000a900460ff16611aa5576040517f08c379a0000000000000000000000000000000000000000000000000000000008152600401611a9c90612cc0565b60405180910390fd5b60026003600083815260200190815260200160002060070160006101000a81548160ff02191690836002811115611adf57611ade612306565b5b02179055507f2db1964bccb906dc3d1fefda85acbfc2bdb2950b2f61f3564bacdd0b49e6de00816002604051611b16929190612ce0565b60405180910390a150565b60045481565b606080606080606080600080600060018a604051611b4591906128b5565b908152602001604051809103902060405180610100016040529081600082018054611b6f906127b6565b80601f0160208091040260200160405190810160405280929190818152602001828054611b9b906127b6565b8015611be85780601f10611bbd57610100808354040283529160200191611be8565b820191906000526020600020905b815481529060010190602001808311611bcb57829003601f168201915b50505050508152602001600182018054611c01906127b6565b80601f0160208091040260200160405190810160405280929190818152602001828054611c2d906127b6565b8015611c7a5780601f10611c4f57610100808354040283529160200191611c7a565b820191906000526020600020905b815481529060010190602001808311611c5d57829003601f168201915b50505050508152602001600282018054611c93906127b6565b80601f0160208091040260200160405190810160405280929190818152602001828054611cbf906127b6565b8015611d0c5780601f10611ce157610100808354040283529160200191611d0c565b820191906000526020600020905b815481529060010190602001808311611cef57829003601f168201915b50505050508152602001600382018054611d25906127b6565b80601f0160208091040260200160405190810160405280929190818152602001828054611d51906127b6565b8015611d9e5780601f10611d7357610100808354040283529160200191611d9e565b820191906000526020600020905b815481529060010190602001808311611d8157829003601f168201915b50505050508152602001600482018054611db7906127b6565b80601f0160208091040260200160405190810160405280929190818152602001828054611de3906127b6565b8015611e305780601f10611e0557610100808354040283529160200191611e30565b820191906000526020600020905b815481529060010190602001808311611e1357829003601f168201915b50505050508152602001600582018054611e49906127b6565b80601f0160208091040260200160405190810160405280929190818152602001828054611e75906127b6565b8015611ec25780601f10611e9757610100808354040283529160200191611ec2565b820191906000526020600020905b815481529060010190602001808311611ea557829003601f168201915b505050505081526020016006820160009054906101000a900460ff161515151581526020016006820160019054906101000a900460ff1615151515815250509050806000015181602001518260400151836060015184608001518560a001518660c001518760e001519850985098509850985098509850985050919395975091939597565b6000604051905090565b600080fd5b600080fd5b600073ffffffffffffffffffffffffffffffffffffffff82169050919050565b6000611f8682611f5b565b9050919050565b611f9681611f7b565b8114611fa157600080fd5b50565b600081359050611fb381611f8d565b92915050565b600060208284031215611fcf57611fce611f51565b5b6000611fdd84828501611fa4565b91505092915050565b611fef81611f7b565b82525050565b600081519050919050565b600082825260208201905092915050565b60005b8381101561202f578082015181840152602081019050612014565b60008484015250505050565b6000601f19601f8301169050919050565b600061205782611ff5565b6120618185612000565b9350612071818560208601612011565b61207a8161203b565b840191505092915050565b6000819050919050565b61209881612085565b82525050565b60008115159050919050565b6120b38161209e565b82525050565b600060c0820190506120ce6000830189611fe6565b81810360208301526120e0818861204c565b905081810360408301526120f4818761204c565b90508181036060830152612108818661204c565b9050612117608083018561208f565b61212460a08301846120aa565b979650505050505050565b600080fd5b600080fd5b7f4e487b7100000000000000000000000000000000000000000000000000000000600052604160045260246000fd5b6121718261203b565b810181811067ffffffffffffffff821117156121905761218f612139565b5b80604052505050565b60006121a3611f47565b90506121af8282612168565b919050565b600067ffffffffffffffff8211156121cf576121ce612139565b5b6121d88261203b565b9050602081019050919050565b82818337600083830152505050565b6000612207612202846121b4565b612199565b90508281526020810184848401111561222357612222612134565b5b61222e8482856121e5565b509392505050565b600082601f83011261224b5761224a61212f565b5b813561225b8482602086016121f4565b91505092915050565b60006020828403121561227a57612279611f51565b5b600082013567ffffffffffffffff81111561229857612297611f56565b5b6122a484828501612236565b91505092915050565b6122b681612085565b81146122c157600080fd5b50565b6000813590506122d3816122ad565b92915050565b6000602082840312156122ef576122ee611f51565b5b60006122fd848285016122c4565b91505092915050565b7f4e487b7100000000000000000000000000000000000000000000000000000000600052602160045260246000fd5b6003811061234657612345612306565b5b50565b600081905061235782612335565b919050565b600061236782612349565b9050919050565b6123778161235c565b82525050565b600061012082019050612393600083018c61208f565b6123a0602083018b611fe6565b81810360408301526123b2818a61204c565b905081810360608301526123c6818961204c565b90506123d5608083018861208f565b81810360a08301526123e7818761204c565b905081810360c08301526123fb818661204c565b905061240a60e083018561236e565b6124186101008301846120aa565b9a9950505050505050505050565b600080600080608085870312156124405761243f611f51565b5b600085013567ffffffffffffffff81111561245e5761245d611f56565b5b61246a87828801612236565b945050602085013567ffffffffffffffff81111561248b5761248a611f56565b5b61249787828801612236565b935050604085013567ffffffffffffffff8111156124b8576124b7611f56565b5b6124c487828801612236565b92505060606124d5878288016122c4565b91505092959194509250565b600080604083850312156124f8576124f7611f51565b5b600083013567ffffffffffffffff81111561251657612515611f56565b5b61252285828601612236565b925050602083013567ffffffffffffffff81111561254357612542611f56565b5b61254f85828601612236565b9150509250929050565b600060208201905061256e60008301846120aa565b92915050565b60006020820190506125896000830184611fe6565b92915050565b60008060008060008060c087890312156125ac576125ab611f51565b5b600087013567ffffffffffffffff8111156125ca576125c9611f56565b5b6125d689828a01612236565b965050602087013567ffffffffffffffff8111156125f7576125f6611f56565b5b61260389828a01612236565b955050604087013567ffffffffffffffff81111561262457612623611f56565b5b61263089828a01612236565b945050606087013567ffffffffffffffff81111561265157612650611f56565b5b61265d89828a01612236565b935050608087013567ffffffffffffffff81111561267e5761267d611f56565b5b61268a89828a01612236565b92505060a087013567ffffffffffffffff8111156126ab576126aa611f56565b5b6126b789828a01612236565b9150509295509295509295565b60006020820190506126d9600083018461208f565b92915050565b60006101008201905081810360008301526126fa818b61204c565b9050818103602083015261270e818a61204c565b90508181036040830152612722818961204c565b90508181036060830152612736818861204c565b9050818103608083015261274a818761204c565b905081810360a083015261275e818661204c565b905061276d60c08301856120aa565b61277a60e08301846120aa565b9998505050505050505050565b7f4e487b7100000000000000000000000000000000000000000000000000000000600052602260045260246000fd5b600060028204905060018216806127ce57607f821691505b6020821081036127e1576127e0612787565b5b50919050565b7f4f6e6c79206f776e65722063616e20706572666f726d2074686973206163746960008201527f6f6e000000000000000000000000000000000000000000000000000000000000602082015250565b6000612843602283612000565b915061284e826127e7565b604082019050919050565b6000602082019050818103600083015261287281612836565b9050919050565b600081905092915050565b600061288f82611ff5565b6128998185612879565b93506128a9818560208601612011565b80840191505092915050565b60006128c18284612884565b915081905092915050565b7f4365727469666963617465206e6f7420666f756e640000000000000000000000600082015250565b6000612902601583612000565b915061290d826128cc565b602082019050919050565b60006020820190508181036000830152612931816128f5565b9050919050565b7f436572746966696361746520616c7265616479207265766f6b65640000000000600082015250565b600061296e601b83612000565b915061297982612938565b602082019050919050565b6000602082019050818103600083015261299d81612961565b9050919050565b600060208201905081810360008301526129be818461204c565b905092915050565b60008190508160005260206000209050919050565b60006020601f8301049050919050565b600082821b905092915050565b600060088302612a287fffffffffffffffffffffffffffffffffffffffffffffffffffffffffffffffff826129eb565b612a3286836129eb565b95508019841693508086168417925050509392505050565b6000819050919050565b6000612a6f612a6a612a6584612085565b612a4a565b612085565b9050919050565b6000819050919050565b612a8983612a54565b612a9d612a9582612a76565b8484546129f8565b825550505050565b600090565b612ab2612aa5565b612abd818484612a80565b505050565b5b81811015612ae157612ad6600082612aaa565b600181019050612ac3565b5050565b601f821115612b2657612af7816129c6565b612b00846129db565b81016020851015612b0f578190505b612b23612b1b856129db565b830182612ac2565b50505b505050565b600082821c905092915050565b6000612b4960001984600802612b2b565b1980831691505092915050565b6000612b628383612b38565b9150826002028217905092915050565b612b7b82611ff5565b67ffffffffffffffff811115612b9457612b93612139565b5b612b9e82546127b6565b612ba9828285612ae5565b600060209050601f831160018114612bdc5760008415612bca578287015190505b612bd48582612b56565b865550612c3c565b601f198416612bea866129c6565b60005b82811015612c1257848901518255600182019150602085019450602081019050612bed565b86831015612c2f5784890151612c2b601f891682612b38565b8355505b6001600288020188555050505b505050505050565b6000604082019050612c596000830185611fe6565b8181036020830152612c6b818461204c565b90509392505050565b7f4170706c69636174696f6e206e6f7420666f756e640000000000000000000000600082015250565b6000612caa601583612000565b9150612cb582612c74565b602082019050919050565b60006020820190508181036000830152612cd981612c9d565b9050919050565b6000604082019050612cf5600083018561208f565b612d02602083018461236e565b9392505050565b7f506c656173652072656769737465722070726f66696c65206669727374000000600082015250565b6000612d3f601d83612000565b9150612d4a82612d09565b602082019050919050565b60006020820190508181036000830152612d6e81612d32565b9050919050565b7f4365727469666963617465206973206e6f742076616c69640000000000000000600082015250565b6000612dab601883612000565b9150612db682612d75565b602082019050919050565b60006020820190508181036000830152612dda81612d9e565b9050919050565b7f4e487b7100000000000000000000000000000000000000000000000000000000600052601160045260246000fd5b6000612e1b82612085565b91507fffffffffffffffffffffffffffffffffffffffffffffffffffffffffffffffff8203612e4d57612e4c612de1565b5b600182019050919050565b6000606082019050612e6d600083018661208f565b612e7a6020830185611fe6565b8181036040830152612e8c818461204c565b9050949350505050565b7f436572746966696361746520616c726561647920657869737473000000000000600082015250565b6000612ecc601a83612000565b9150612ed782612e96565b602082019050919050565b60006020820190508181036000830152612efb81612ebf565b9050919050565b60006060820190508181036000830152612f1c818661204c565b90508181036020830152612f30818561204c565b90508181036040830152612f44818461204c565b9050949350505050565b6000612f5982612085565b9150612f6483612085565b9250828201905080821115612f7c57612f7b612de1565b5b92915050565b6000608082019050612f97600083018761208f565b612fa4602083018661208f565b8181036040830152612fb6818561204c565b90508181036060830152612fca818461204c565b90509594505050505056fe4d696e6f7220696d70726f76656d656e74206d6179206265206e656564656420646570656e64696e67206f6e206a6f6220726571756972656d656e74732e5374726f6e672076657269666965642063657274696669636174652c2072656c6576616e7420736b696c6c732c20616e6420676f6f6420657870657269656e63652e50726f66696c6520646f6573206e6f74206d6565742074686520707265666572726564207468726573686f6c642e48617320766572696669656420636572746966696361746520616e642061636365707461626c652070726f66696c652e4e65656473206d6f726520657870657269656e6365206f72207374726f6e67657220736b696c6c2065766964656e63652ea26469706673582212208309f4af3bbef00fb6258573c877a44e35adf4c0a1a0b549cfa9618570a845de64736f6c63430008140033",
  "linkReferences": {},
  "deployedLinkReferences": {}
}